:020000040800F2
:1000000000500020E5090008890900088F09000850
:10001000950900089B090008A109000800000000DC
:10002000000000000000000000000000A709000818
:10003000B309000800000000BF090008CB09000850
:100040002D0A00082D0A00082D0A00082D0A0008B4
:100050002D0A00082D0A00082D0A00082D0A0008A4
:100060002D0A00082D0A00082D0A00082D0A000894
:100070002D0A00082D0A00082D0A00082D0A000884
:100080002D0A00082D0A00082D0A00082D0A000874
:100090002D0A00082D0A00082D0A00082D0A000864
:1000A0002D0A00082D0A00082D0A00082D0A000854
:1000B0002D0A00082D0A00082D0A00082D0A000844
:1000C0002D0A00082D0A00082D0A00082D0A000834
:1000D0002D0A00082D0A00082D0A00082D0A000824
:1000E0002D0A00082D0A00082D0A00080000000053
:1000F0000000000000000000000000000000000000
:0C01000000000000000000005FF808F1A3
:10010C0010B5054C237833B9044B13B10448AFF345
:10011C0000800123237010BD1C0000200000000093
:10012C004C22000808B5034B1BB103490348AFF33D
:10013C00008008BD00000000200000204C220008B8
:10014C0080B582B000AF0346FB71384AFB7913705F
:10015C00374B08221A70374B00221A70334B1B781E
:10016C00012B07D9334B1B7843F00803DAB2314B20
:10017C001A7006E02F4B1B7843F00403DAB22D4BB8
:10018C001A7000F013FA322000F0AEFC284B1B78EA
:10019C00184600F0D1F94FF47A7000F0A5FC30202D
:1001AC0000F0B9F941F2941000F028FA302000F078
:1001BC00B2F941F2941000F021FA302000F0ABF9C2
:1001CC0041F2941000F01AFA202000F0A4F96420F7
:1001DC0000F014FA174B1B7843F02003DBB21846DF
:1001EC0000F05CF9144B04221A7000F08BF800F04C
:1001FC002BF8124B02221A70104B1B7843F004039D
:10020C00DBB2184600F04AF941F2941000F0F6F90E
:10021C000B49002000F0EBF80A49012000F0E7F848
:10022C0000F01DF800BF0837BD4680BD3B00002024
:10023C003C00002038000020390000203A0000204B
:10024C00000000200800002080B500AF012000F065
:10025C0025F94FF4FA6000F0D1F900BF80BD80B5EC
:10026C0000AF022000F01AF94FF4FA6000F0C6F962
:10027C0000BF80BD90B587B000AF03460A46FB7146
:10028C001346BB71124B07F108040FCB84E80F0027
:10029C00104B1B78BA799A4203D30E4B1B78013B57
:1002AC00BB71BB799B0018333B4453F8103CDAB25A
:1002BC00FB791344DBB25BB263F07F035BB2DBB25E
:1002CC00184600F0EBF800BF1C37BD4690BD00BFD0
:1002DC00642200083B00002080B500AF084B1B785F
:1002EC0023F00403DAB2064B1A70054B1B7843F06B
:1002FC000803DBB2184600F0D1F800BF80BD00BF88
:10030C003900002080B500AF084B1B7843F0040384
:10031C00DAB2064B1A70054B1B7843F00803DBB2BC
:10032C00184600F0BBF800BF80BD00BF39000020AC
:10033C0080B500AF084B1B7823F00203DAB2064BF2
:10034C001A70054B1B7843F00803DBB2184600F01B
:10035C00A5F800BF80BD00BF3900002080B500AFFC
:10036C00084B1B7843F00203DAB2064B1A70054BAC
:10037C001B7843F00803DBB2184600F08FF800BF7F
:10038C0080BD00BF3900002080B500AF084B1B7842
:10039C0023F00103DAB2064B1A70054B1B7843F0BD
:1003AC000803DBB2184600F079F800BF80BD00BF2F
:1003BC003900002080B500AF084B1B7843F00103D7
:1003CC00DAB2064B1A70054B1B7843F00803DBB20C
:1003DC00184600F063F800BF80BD00BF3900002054
:1003EC0080B500AF182000F059F800BF80BD80B573
:1003FC0084B000AF03463960FB71FB7903F007034F
:10040C00FB71FB79DB005BB243F040035BB2DBB208
:10041C00184600F043F80023FB6009E0FB683A68DB
:10042C0013441B78184600F047F8FB680133FB6057
:10043C00FB68072BF2DD00BF00BF1037BD4680BD47
:10044C0080B582B000AF786006E07B685A1C7A6099
:10045C001B78184600F030F87B681B78002BF4D121
:10046C0000BF00BF0837BD4680BD000080B500AF9F
:10047C00034B00221A70002000F05EF800BF80BD14
:10048C003C00002080B500AF034B08221A700020FE
:10049C0000F052F800BF80BD3C00002080B582B057
:1004AC0000AF0346FB71FB790021184600F012F8EF
:1004BC0000BF0837BD4680BD80B582B000AF034693
:1004CC00FB71FB790121184600F004F800BF0837D6
:1004DC00BD4680BD80B584B000AF03460A46FB71B3
:1004EC001346BB71FB7923F00F03FB73FB791B01E4
:1004FC00BB73FA7BBB791343DBB2184600F00BF8E5
:10050C00BA7BBB791343DBB2184600F004F800BF8A
:10051C001037BD4680BD80B582B000AF0346FB717D
:10052C00FB79184600F008F8FB79184600F020F823
:10053C0000BF0837BD4680BD80B586B002AF03460C
:10054C00FB71094B1A78FB791343DBB2FB7307F190
:10055C000F020A23009301234E21044800F094FE5D
:10056C0000BF1037BD4680BD3C000020400000207D
:10057C0080B582B000AF0346FB71FB7943F00403F6
:10058C00DBB21846FFF7D8FF142000F037F8FB79E0
:10059C0023F00403DBB21846FFF7CEFF142000F063
:1005AC002DF800BF0837BD4680BD000080B400AFF9
:1005BC00104BDB680F4A23F08073D3600D4BDB6864
:1005CC000C4A43F08073D3600B4B1B680A4A23F030
:1005DC0001031360084B1B68074A43F001031360C7
:1005EC00054B00225A6000BF00BF00BF00BFBD46D4
:1005FC0080BC7047F0ED00E0001000E080B487B0E4
:10060C0000AF78600D4B1B680D4AA2FB03239A0CBC
:10061C007B6802FB03F37B610A4B5B683B61094B14
:10062C005A683B69D31AFB60FB687A699A42F6D820
:10063C0000BF00BF1C37BD4680BC704710000020B7
:10064C0083DE1B43001000E080B584B000AF00F0E7
:10065C00E9F900F091F800F0F9F800F0C9F802207F
:10066C00FFF76EFDFFF7F0FD00210020FFF702FE03
:10067C003E48FFF7E5FE01210A20FFF7FBFD3C4851
:10068C00FFF7DEFE4FF4FA6000F02EFAFFF7DCFD08
:10069C0000210020FFF7EEFD3448FFF7D1FE4FF4A8
:1006AC00FA6000F021FAFFF7E1FE4FF4FA6000F077
:1006BC001BFAFFF7E7FE4FF4FA6000F015FAFFF7AC
:1006CC004DFE4FF4FA6000F00FFAFFF773FE41F2A3
:1006DC00883000F009FAFFF757FE4FF4FA6000F08B
:1006EC0003FAFFF725FE4FF4FA6000F0FDF9FFF76F
:1006FC00F3FD4FF4FA6000F0F7F9FFF703FEFFF794
:10070C00A3FD00210020FFF7B5FD1A48FFF798FE66
:10071C000023FB6008E0FFF763FE4FF4FA7000F073
:10072C00E3F9FB680133FB60FB68272BF3DD012346
:10073C00BB6016E03B460A221946B86801F010FD72
:10074C00FFF782FD00210020FFF794FD3B46184681
:10075C00FFF776FE4FF47A7000F0C6F9BB680133F0
:10076C00BB60BB68C82BE5DDFEE700BF7422000848
:10077C007C2200088422000880B590B000AF07F1FD
:10078C00180328220021184601F02EFD3B1D0022E3
:10079C001A605A609A60DA601A610223BB61012305
:1007AC00BB621023FB6200237B6307F1180318461E
:1007BC0001F0C2F80346002B01D000F069F80F23BA
:1007CC007B600023BB600023FB6000233B610023A4
:1007DC007B613B1D0021184601F030FB0346002BCA
:1007EC0001D000F055F800BF4037BD4680BD000079
:1007FC0080B500AF124B134A1A60114B124A5A6063
:10080C000F4B00229A600E4B0022DA600C4B4FF417
:10081C0080421A610A4B00225A61094B00229A61EC
:10082C00074B0022DA61064B00221A62044800F0E2
:10083C00E7FB0346002B01D000F02AF800BF80BD77
:10084C004000002000540040A086010080B483B01A
:10085C0000AF0E4B9B690D4A43F0040393610B4BA5
:10086C009B6903F004037B607B68084B9B69074A18
:10087C0043F008039361054B9B6903F008033B604D
:10088C003B6800BF0C37BD4680BC7047001002406F
:10089C0080B400AF72B600BFFEE7000080B485B034
:1008AC0000AF154B9B69144A43F001039361124B43
:1008BC009B6903F00103BB60BB680F4BDB690E4AFD
:1008CC0043F08053D3610C4BDB6903F080537B60A6
:1008DC007B680A4B5B68FB60FB6823F0E063FB60A2
:1008EC00FB6843F00073FB60044AFB68536000BF75
:1008FC001437BD4680BC7047001002400000014018
:10090C0080B588B000AF786007F1100300221A6040
:10091C005A609A60DA607B681B68154A934223D14F
:10092C00144B9B69134A43F008039361114B9B6969
:10093C0003F00803FB60FB68C0233B6112237B615F
:10094C000323FB6107F1100319460B4800F0D4F99F
:10095C00084BDB69074A43F40013D361054BDB6991
:10096C0003F40013BB60BB6800BF2037BD4680BDDD
:10097C000054004000100240000C014080B400AF55
:10098C00FEE780B400AFFEE780B400AFFEE780B4B2
:10099C0000AFFEE780B400AFFEE780B400AF00BF4D
:1009AC00BD4680BC704780B400AF00BFBD4680BC64
:1009BC00704780B400AF00BFBD4680BC704780B5A7
:1009CC0000AF00F075F800BF80BD80B400AF00BF71
:1009DC00BD4680BC70470000FFF7F7FF0B480C4981
:1009EC000C4A002302E0D458C4500433C4188C427F
:1009FC00F9D3094A094C002301E013600432A242E6
:100A0C00FBD301F0F9FBFFF71FFE7047000000203D
:100A1C001C000020002300081C000020980000206F
:100A2C00FEE7000080B500AF084B1B68074A43F097
:100A3C0010031360032000F02BF90F2000F008F8CE
:100A4C00FFF72CFF0023184680BD00BF002002409A
:100A5C0080B582B000AF7860124B1A68124B1B78CD
:100A6C0019464FF47A73B3FBF1F3B2FBF3F3184668
:100A7C0000F035F90346002B01D001230EE07B6812
:100A8C000F2B0AD8002279684FF0FF3000F00BF9D9
:100A9C00064A7B681360002300E0012318460837E0
:100AAC00BD4680BD1000002018000020140000205E
:100ABC0080B400AF054B1B781A46054B1B681344DA
:100ACC00034A136000BFBD4680BC7047180000206D
:100ADC009400002080B400AF024B1B681846BD4642
:100AEC0080BC70479400002080B584B000AF786063
:100AFC00FFF7F0FFB8607B68FB60FB68B3F1FF3F6A
:100B0C0005D00A4B1B781A46FB681344FB6000BFE8
:100B1C00FFF7E0FF0246BB68D31AFA689A42F7D88F
:100B2C0000BF00BF1037BD4680BD00BF18000020BD
:100B3C0080B485B000AF78607B6803F00703FB607E
:100B4C000C4BDB68BB60BA684FF6FF031340BB600D
:100B5C00FB681A02BB68134343F0BF6343F40033D2
:100B6C00BB60044ABB68D36000BF1437BD4680BC71
:100B7C00704700BF00ED00E080B400AF044BDB68B1
:100B8C001B0A03F007031846BD4680BC704700BF24
:100B9C0000ED00E080B483B000AF03463960FB7118
:100BAC0097F90730002B0ADB3B68DAB20C4997F94E
:100BBC0007301201D2B20B4483F800230AE03B68E1
:100BCC00DAB20849FB7903F00F03043B1201D2B2ED
:100BDC000B441A7600BF0C37BD4680BC704700BF73
:100BEC0000E100E000ED00E080B489B000AFF860F7
:100BFC00B9607A60FB6803F00703FB61FB69C3F122
:100C0C000703042B28BF0423BB61FB690433062BA9
:100C1C0002D9FB69033B00E000237B614FF0FF32FC
:100C2C00BB6902FA03F3DA43BB681A407B699A404A
:100C3C004FF0FF317B6901FA03F3D9437B680B401A
:100C4C00134318462437BD4680BC704780B582B02C
:100C5C0000AF78607B68013BB3F1807F01D3012347
:100C6C000FE00A4A7B68013B53600F214FF0FF30C5
:100C7C00FFF790FF054B00229A60044B07221A6085
:100C8C00002318460837BD4680BD00BF10E000E0C9
:100C9C0080B582B000AF78607868FFF749FF00BF7D
:100CAC000837BD4680BD80B586B000AF0346B9603D
:100CBC007A60FB7300237B61FFF75EFF78617A68D3
:100CCC00B9687869FFF790FF024697F90F30114623
:100CDC001846FFF75FFF00BF1837BD4680BD80B5D3
:100CEC0082B000AF78607868FFF7B0FF0346184613
:100CFC000837BD4680BD000080B48BB000AF786073
:100D0C00396000237B6200233B6269E101227B6A2C
:100D1C0002FA03F3FB613B681B68FA691340BB6181
:100D2C00BA69FB699A4240F058813B685B689A4A01
:100D3C0093425ED0984A934275D8984A934258D0C1
:100D4C00964A93426FD8964A934252D0944A934211
:100D5C0069D8944A93424CD0924A934263D8924AAF
:100D6C00934246D0904A93425DD8122B2AD8122B2C
:100D7C0059D801A252F823F0FF0D0008D90D000834
:100D8C00EB0D00082D0E0008330E0008330E000882
:100D9C00330E0008330E0008330E0008330E000823
:100DAC00330E0008330E0008330E0008330E000813
:100DBC00330E0008330E0008330E0008E10D000856
:100DCC00F50D0008794A934213D02CE03B68DB68A0
:100DDC003B6229E03B68DB6804333B6224E03B6800
:100DEC00DB6808333B621FE03B68DB680C333B621B
:100DFC001AE03B689B68002B02D104233B6213E092
:100E0C003B689B68012B05D108233B627B68FA6920
:100E1C001A6109E008233B627B68FA695A6103E0B6
:100E2C0000233B6200E000BFBB69FF2B01D87B684D
:100E3C0001E07B6804337B61BB69FF2B02D87B6AC2
:100E4C009B0002E07B6A083B9B003B617B691A6854
:100E5C000F213B6901FA03F3DB431A40396A3B6902
:100E6C0001FA03F31A437B691A603B685B6803F071
:100E7C008053002B00F0B1804D4B9B694C4A43F0E2
:100E8C00010393614A4B9B6903F00103BB60BB6890
:100E9C00484A7B6A9B08023352F82330FB607B6A1A
:100EAC0003F003039B000F2202FA03F3DB43FA68FF
:100EBC001340FB607B68404A934213D07B683F4AE7
:100ECC0093420DD07B683E4A934207D07B683D4AE3
:100EDC00934201D1032306E0042304E0022302E041
:100EEC00012300E000237A6A02F00302920093408F
:100EFC00FA681343FB602F497B6A9B080233FA683C
:100F0C0041F823203B685B6803F48013002B06D068
:100F1C002D4B9A682C49BB6913438B6006E02A4B16
:100F2C009A68BB69DB43284913408B603B685B685C
:100F3C0003F40013002B06D0234BDA682249BB695B
:100F4C001343CB6006E0204BDA68BB69DB431E49D8
:100F5C001340CB603B685B6803F40033002B06D076
:100F6C00194B5A681849BB6913434B6006E0164B82
:100F7C005A68BB69DB43144913404B603B685B68A0
:100F8C0003F48033002B21D00F4B1A680E49BB6938
:100F9C0013430B6021E000BF000032100000311041
:100FAC00000022100000211000001210000011108F
:100FBC00001002400000014000080140000C0140FC
:100FCC000010014000140140000401400B4B1A6852
:100FDC00BB69DB43094913400B607B6A01337B62BD
:100FEC003B681A687B6A22FA03F3002B7FF48EAEFF
:100FFC0000BF00BF2C37BD4680BC704700040140C9
:10100C0080B584B000AF78607B68002B01D10123E0
:10101C002BE17B6893F83D30DBB2002B06D17B686B
:10102C00002283F83C207868FFF76AFC7B68242256
:10103C0083F83D207B681B681A687B681B6822F06C
:10104C0001021A607B681B681A687B681B6842F493
:10105C0000421A607B681B681A687B681B6822F464
:10106C0000421A6001F032F8F8607B685B68814AD4
:10107C00934207D8FB68804A934294BF0123002314
:10108C00DBB206E0FB687D4A934294BF0123002348
:10109C00DBB2002B01D00123E7E0FB68784AA2FB0E
:1010AC0003239B0CBB607B681B685B6823F03F01D0
:1010BC007B681B68BA680A435A607B681B681B6AAA
:1010CC0023F03F017B685B686A4A934202D8BB6895
:1010DC00013309E0BB684FF4967202FB03F3694AD3
:1010EC00A2FB03239B0901337A6812680B4313623A
:1010FC007B681B68DB6923F44F4222F0FF027B689C
:10110C005B685C498B4219D8FB68591E7B685B682D
:10111C005B00B1FBF3F3591C40F6FC730B40002B46
:10112C000AD0FB68591E7B685B685B00B1FBF3F36C
:10113C000133C3F30B0351E004234FE07B689B683E
:10114C00002B11D1FB68581E7B6859680B465B005D
:10115C000B44B0FBF3F30133C3F30B03002B0CBFB5
:10116C0001230023DBB212E0FB68581E7B68596830
:10117C000B469B000B4499000B44B0FBF3F301337B
:10118C00C3F30B03002B0CBF01230023DBB2002B9A
:10119C0001D0012322E07B689B68002B0ED1FB68F9
:1011AC00581E7B6859680B465B000B44B0FBF3F38D
:1011BC000133C3F30B0343F400430FE0FB68581EE9
:1011CC007B6859680B469B000B4499000B44B0FBA1
:1011DC00F3F30133C3F30B0343F440437968096819
:1011EC001343CB617B681B681B6823F0C0017B68D1
:1011FC00DA697B681B6A1A437B681B680A431A60AE
:10120C007B681B689B6823F4034323F0FF037A6815
:10121C0011697A68D26811437A6812680B4393603B
:10122C007B681B68DB6823F0FF017B685A697B686D
:10123C009B691A437B681B680A43DA607B681B68EE
:10124C001A687B681B6842F001021A607B680022F6
:10125C001A647B68202283F83D207B6800221A6385
:10126C007B68002283F83E20002318461037BD46C9
:10127C0080BD00BFA08601007F841E00FF083D00DA
:10128C0083DE1B43D34D621080B588B002AFF8608B
:10129C007A601A460B467B8113463B81FFF71AFC9A
:1012AC007861FB6893F83D30DBB2202B40F0E08096
:1012BC007B690093192301227049F86800F064F9E6
:1012CC000346002B01D00223D3E0FB6893F83C309B
:1012DC00012B01D10223CCE0FB68012283F83C20D6
:1012EC00FB681B681B6803F00103012B07D0FB682C
:1012FC001B681A68FB681B6842F001021A60FB68E5
:10130C001B681A68FB681B6822F400621A60FB6891
:10131C00212283F83D20FB68102283F83E20FB68D5
:10132C0000221A64FB687A685A62FB683A895A850B
:10133C00FB685B8D9AB2FB681A85FB68504ADA62CF
:10134C0079897B693A6AF86800F09CF80346002BAF
:10135C0001D001238DE000233B61FB681B685B69B6
:10136C003B61FB681B689B693B613B6966E07A6982
:10137C00396AF86800F022FA0346002B0DD0FB689E
:10138C001B6C042B07D1FB681B681A68FB681B6875
:10139C0042F400721A6001236BE0FB685B6A1A78F6
:1013AC00FB681B681A61FB685B6A5A1CFB685A6213
:1013BC00FB685B8D9BB2013B9AB2FB685A85FB685C
:1013CC001B8D013B9AB2FB681A85FB681B685B6935
:1013DC0003F00403042B1BD1FB681B8D002B17D0CF
:1013EC00FB685B6A1A78FB681B681A61FB685B6AAE
:1013FC005A1CFB685A62FB685B8D9BB2013B9AB22C
:10140C00FB685A85FB681B8D013B9AB2FB681A85F9
:10141C007A69396AF86800F019FA0346002B0DD086
:10142C00FB681B6C042B07D1FB681B681A68FB68F4
:10143C001B6842F400721A6001231AE0FB681B8DD2
:10144C00002B94D1FB681B681A68FB681B6842F47C
:10145C0000721A60FB68202283F83D20FB68002292
:10146C0083F83E20FB68002283F83C20002300E038
:10147C00022318461837BD4680BD00BF020010007D
:10148C000000FFFF80B588B002AFF8607A603B6067
:10149C000B467B81FB68DB6A7B617B69082B06D082
:1014AC007B69012B03D07B6913F5803F08D1FB6866
:1014BC001B681A68FB681B6842F480721A600BE0A8
:1014CC00FB681B6B122B07D1FB681B681A68FB6847
:1014DC001B6842F480721A603B6800937B680022A0
:1014EC004FF00111F86800F04FF80346002B0DD0B7
:1014FC00FB681B681B6803F48073B3F5807F03D112
:10150C00FB684FF400721A64032335E0FB681B6917
:10151C00B3F5804F08D17B89DBB21A46FB681B6898
:10152C0002F0FE021A611BE07B89DB11DBB203F0D7
:10153C000603DBB263F00F03DAB2FB681B681A61B7
:10154C003B687A680E49F86800F098F80346002B5F
:10155C0001D0012310E07B89DAB2FB681B681A61A9
:10156C003B687A680749F86800F088F80346002B56
:10157C0001D0012300E0002318461837BD4680BD7A
:10158C00080001000200010080B584B000AFF860D3
:10159C00B9603B601346FB7148E03B68B3F1FF3F19
:1015AC0044D0FFF797FA0246BB69D31A3A689A42BD
:1015BC0002D33B68002B39D1BB681B0CDBB2012B6F
:1015CC000DD1FB681B685B69DA43BB6813409BB2A7
:1015DC00002B0CBF01230023DBB21A460CE0FB6886
:1015EC001B689B69DA43BB6813409BB2002B0CBF92
:1015FC0001230023DBB21A46FB799A4216D1FB6811
:10160C0000221A63FB68202283F83D20FB6800222D
:10161C0083F83E20FB681B6C43F02002FB681A64C5
:10162C00FB68002283F83C20012323E0BB681B0CE1
:10163C00DBB2012B0DD1FB681B685B69DA43BB681D
:10164C0013409BB2002B0CBF01230023DBB21A46C4
:10165C000CE0FB681B689B69DA43BB6813409BB2C8
:10166C00002B0CBF01230023DBB21A46FB799A42F4
:10167C0093D0002318461037BD4680BD80B584B08A
:10168C0000AFF860B9607A603B6071E0FB681B6882
:10169C005B6903F48063B3F5806F23D1FB681B682F
:1016AC001A68FB681B6842F400721A60FB681B68BE
:1016BC006FF480625A61FB6800221A63FB68202277
:1016CC0083F83D20FB68002283F83E20FB681B6CEE
:1016DC0043F00402FB681A64FB68002283F83C2088
:1016EC00012367E07B68B3F1FF3F41D0FFF7F2F9CC
:1016FC0002463B68D31A7A689A4202D37B68002B65
:10170C0036D1BB681B0CDBB2012B0CD1FB681B6800
:10171C005B69DA43BB6813409BB2002B14BF0123F7
:10172C000023DBB20BE0FB681B689B69DA43BB68E8
:10173C0013409BB2002B14BF01230023DBB2002B00
:10174C0016D0FB6800221A63FB68202283F83D2028
:10175C00FB68002283F83E20FB681B6C43F02002E0
:10176C00FB681A64FB68002283F83C20012321E00B
:10177C00BB681B0CDBB2012B0CD1FB681B685B69D3
:10178C00DA43BB6813409BB2002B14BF0123002328
:10179C00DBB20BE0FB681B689B69DA43BB68134048
:1017AC009BB2002B14BF01230023DBB2002B7FF470
:1017BC006DAF002318461037BD4680BD80B584B090
:1017CC0000AFF860B9607A6034E0F86800F086F831
:1017DC000346002B01D0012334E0BB68B3F1FF3F7B
:1017EC0028D0FFF777F902467B68D31ABA689A4279
:1017FC0002D3BB68002B1DD1FB681B685B6903F02F
:10180C008003802B16D0FB6800221A63FB68202211
:10181C0083F83D20FB68002283F83E20FB681B6C9C
:10182C0043F02002FB681A64FB68002283F83C201A
:10183C00012307E0FB681B685B6903F08003802BC6
:10184C00C3D1002318461037BD4680BD80B584B087
:10185C0000AFF860B9607A6034E0F86800F03EF8E8
:10186C000346002B01D0012334E0BB68B3F1FF3FEA
:10187C0028D0FFF72FF902467B68D31ABA689A4230
:10188C0002D3BB68002B1DD1FB681B685B6903F09E
:10189C000403042B16D0FB6800221A63FB68202279
:1018AC0083F83D20FB68002283F83E20FB681B6C0C
:1018BC0043F02002FB681A64FB68002283F83C208A
:1018CC00012307E0FB681B685B6903F00403042B2E
:1018DC00C3D1002318461037BD4680BD80B483B0F9
:1018EC0000AF78607B681B685B6903F48063B3F5B9
:1018FC00806F1BD17B681B686FF480625A617B68B8
:10190C0000221A637B68202283F83D207B6800222A
:10191C0083F83E207B681B6C43F004027B681A64DE
:10192C007B68002283F83C20012300E0002318464A
:10193C000C37BD4680BC704780B586B000AF786070
:10194C007B68002B01D1012372E27B681B6803F0DA
:10195C000103002B00F08780924B5B6803F00C03B3
:10196C00042B0CD08F4B5B6803F00C03082B12D1AB
:10197C008C4B5B6803F48033B3F5803F0BD1894B00
:10198C001B6803F40033002B6CD07B685B68002B66
:10199C0068D101234CE27B685B68B3F5803F06D1CC
:1019AC00804B1B687F4A43F4803313602EE07B68C6
:1019BC005B68002B0CD17B4B1B687A4A23F4803379
:1019CC001360784B1B68774A23F4802313601DE067
:1019DC007B685B68B3F5A02F0CD1724B1B68714A06
:1019EC0043F4802313606F4B1B686E4A43F48033BF
:1019FC0013600BE06B4B1B686A4A23F48033136053
:101A0C00684B1B68674A23F4802313607B685B6810
:101A1C00002B13D0FFF75EF8386108E0FFF75AF897
:101A2C0002463B69D31A642B01D9032300E25D4BB8
:101A3C001B6803F40033002BF0D014E0FFF74AF8D6
:101A4C00386108E0FFF746F802463B69D31A642B6D
:101A5C0001D90323ECE1534B1B6803F40033002B37
:101A6C00F0D100E000BF7B681B6803F00203002B81
:101A7C0063D04C4B5B6803F00C03002B0BD0494B31
:101A8C005B6803F00C03082B1CD1464B5B6803F41A
:101A9C008033002B16D1434B1B6803F00203002B41
:101AAC0005D07B681B69012B01D00123C0E13D4BA4
:101ABC001B6823F0F8027B685B69DB003949134330
:101ACC000B603AE07B681B69002B20D0364B01225F
:101ADC001A60FEF7FFFF386108E0FEF7FBFF0246D5
:101AEC003B69D31A022B01D90323A1E12D4B1B68AF
:101AFC0003F00203002BF0D02A4B1B6823F0F802F2
:101B0C007B685B69DB00274913430B6015E0264BB0
:101B1C0000221A60FEF7DEFF386108E0FEF7DAFFFC
:101B2C0002463B69D31A022B01D9032380E11D4BDA
:101B3C001B6803F00203002BF0D17B681B6803F0D9
:101B4C000803002B3AD07B689B69002B19D0174BEC
:101B5C0001221A60FEF7BEFF386108E0FEF7BAFFFB
:101B6C0002463B69D31A022B01D9032360E10D4BCA
:101B7C005B6A03F00203002BF0D0012000F0BAFAEC
:101B8C001CE00A4B00221A60FEF7A4FF38610FE03C
:101B9C00FEF7A0FF02463B69D31A022B08D9032398
:101BAC0046E100BF00100240000042428004424265
:101BBC00924B5B6A03F00203002BE9D17B681B6834
:101BCC0003F00403002B00F0A6800023FB758B4B65
:101BDC00DB6903F08053002B0DD1884BDB69874AFE
:101BEC0043F08053D361854BDB6903F08053BB60BA
:101BFC00BB680123FB75824B1B6803F48073002BBD
:101C0C0018D17F4B1B687E4A43F480731360FEF738
:101C1C0061FF386108E0FEF75DFF02463B69D31AAD
:101C2C00642B01D9032303E1754B1B6803F4807308
:101C3C00002BF0D07B68DB68012B06D16F4B1B6A45
:101C4C006E4A43F0010313622DE07B68DB68002BC6
:101C5C000CD16A4B1B6A694A23F001031362674B70
:101C6C001B6A664A23F0040313621CE07B68DB6882
:101C7C00052B0CD1614B1B6A604A43F004031362C1
:101C8C005E4B1B6A5D4A43F0010313620BE05B4B36
:101C9C001B6A5A4A23F001031362584B1B6A574ABA
:101CAC0023F0040313627B68DB68002B15D0FEF76E
:101CBC0011FF38610AE0FEF70DFF02463B69D31AAB
:101CCC0041F28832934201D90323B1E04B4B1B6A9A
:101CDC0003F00203002BEED014E0FEF7FBFE38619C
:101CEC000AE0FEF7F7FE02463B69D31A41F288324E
:101CFC00934201D903239BE0404B1B6A03F0020380
:101D0C00002BEED1FB7D012B05D13C4BDB693B4A13
:101D1C0023F08053D3617B68DB69002B00F0878054
:101D2C00364B5B6803F00C03082B61D07B68DB69D6
:101D3C00022B46D1334B00221A60FEF7CBFE3861E2
:101D4C0008E0FEF7C7FE02463B69D31A022B01D905
:101D5C0003236DE0294B1B6803F00073002BF0D1BB
:101D6C007B681B6AB3F5803F08D1244B5B6823F476
:101D7C0000327B689B68214913434B601F4B5B68A7
:101D8C0023F474127B68196A7B685B6A0B431B49EA
:101D9C0013434B601B4B01221A60FEF79BFE38610C
:101DAC0008E0FEF797FE02463B69D31A022B01D9D5
:101DBC0003233DE0114B1B6803F00073002BF0D0A4
:101DCC0035E0104B00221A60FEF784FE386108E003
:101DDC00FEF780FE02463B69D31A022B01D903237E
:101DEC0026E0064B1B6803F00073002BF0D11EE0BD
:101DFC007B68DB69012B07D1012319E0001002403D
:101E0C0000700040600042420B4B5B68FB60FB685B
:101E1C0003F480327B681B6A9A4206D1FB6803F498
:101E2C0070127B685B6A9A4201D0012300E00023A8
:101E3C0018461837BD4680BD0010024080B584B0EE
:101E4C0000AF786039607B68002B01D10123D0E0B2
:101E5C006A4B1B6803F007033A689A4210D9674B28
:101E6C001B6823F0070265493B6813430B60634B07
:101E7C001B6803F007033A689A4201D00123B8E0CB
:101E8C007B681B6803F00203002B20D07B681B6867
:101E9C0003F00403002B05D0594B5B68584A43F4FC
:101EAC00E06353607B681B6803F00803002B05D0CC
:101EBC00534B5B68524A43F460535360504B5B681E
:101ECC0023F0F0027B689B684D4913434B607B68A1
:101EDC001B6803F00103002B40D07B685B68012B6F
:101EEC0007D1474B1B6803F40033002B15D101239A
:101EFC007FE07B685B68022B07D1414B1B6803F0CA
:101F0C000073002B09D1012373E03D4B1B6803F0D8
:101F1C000203002B01D101236BE0394B5B6823F0EA
:101F2C0003027B685B68364913434B60FEF7D2FDB6
:101F3C00F8600AE0FEF7CEFD0246FB68D31A41F2C8
:101F4C008832934201D9032353E02D4B5B6803F095
:101F5C000C027B685B689B009A42EBD1274B1B6899
:101F6C0003F007033A689A4210D2244B1B6823F003
:101F7C00070222493B6813430B60204B1B6803F09C
:101F8C0007033A689A4201D0012332E07B681B6850
:101F9C0003F00403002B08D0194B5B6823F4E062B8
:101FAC007B68DB68164913434B607B681B6803F046
:101FBC000803002B09D0124B5B6823F460527B683A
:101FCC001B69DB000E4913434B6000F021F80246FD
:101FDC000B4B5B681B0903F00F030A49CB5C22FA1D
:101FEC0003F3094A1360094B1B681846FEF730FDD2
:101FFC00002318461037BD4680BD00BF00200240AC
:10200C0000100240A822000810000020140000203C
:10201C0080B487B000AF0023FB600023BB600023BB
:10202C007B6100237B6000233B611E4B5B68FB6084
:10203C00FB6803F00C03042B02D0082B03D027E021
:10204C00194B3B6127E0FB689B0C03F00F03174A0D
:10205C00D35C7B60FB6803F48033002B10D0114BF6
:10206C005B685B0C03F00103114AD35CBB607B68BB
:10207C000D4A03FB02F2BB68B2FBF3F37B6104E095
:10208C007B680C4A02FB03F37B617B693B6102E0DA
:10209C00054B3B6100BF3B6918461C37BD4680BCF5
:1020AC00704700BF0010024000127A00C0220008E6
:1020BC00D022000800093D0080B400AF024B1B6821
:1020CC001846BD4680BC70471000002080B500AF9C
:1020DC00FFF7F2FF0246054B5B681B0A03F0070390
:1020EC000349CB5C22FA03F3184680BD0010024072
:1020FC00B822000880B485B000AF78600A4B1B682A
:10210C000A4AA2FB03235B0A7A6802FB03F3FB6017
:10211C0000BFFB685A1EFA60002BF9D100BF00BF4C
:10212C001437BD4680BC704710000020D34D6210A0
:10213C00931E222B10B50C4604D900231C460B70A1
:10214C00204610BD0A2A09D1002807DA2D230B706E
:10215C0001214042214400F005F8F1E70021F9E7A4
:10216C00FFF7E6BFF0B58BB005460B466E461D4C2F
:10217C0004F1200C374620686168083403C76445B5
:10218C003E46F7D1217920683971911E2229386099
:10219C004FF0000104D919700B4618460BB0F0BD76
:1021AC00581E8446B5FBF2F702FB175628366E44D0
:1021BC0016F8286C0C460CF8016F2E46B2423D46C0
:1021CC0001F10101EED900225A541919A51AAA429B
:1021DC00E3DA10F8015F0E780132067001F801594C
:1021EC00F4E700BFD222000803460244934200D118
:1021FC00704703F8011BF9E770B500260C4D0D4C28
:10220C00641BA410A64209D100F01AF800260A4D4E
:10221C000A4C641BA410A64205D170BD55F8043BB2
:10222C0098470136EEE755F8043B98470136F2E73C
:10223C00F8220008F8220008F8220008FC22000806
:10224C00F8B500BFF8BC08BC9E467047F8B500BF97
:08225C00F8BC08BC9E46704767
:1022640000000000400000001400000054000000C2
:1022740048454C4C4F000000574F524C440000005E
:102284004C6561726E696E672053544D333220770A
:10229400697468204C43442069732066756E203A43
:1022A4002D290000000000000000000001020304CA
:1022B40006070809000000000102030402030405E4
:1022C400060708090A0B0C0D0E0F1010010230311D
:1022D400323334353637383961626364656667682A
:1022E400696A6B6C6D6E6F707172737475767778E2
:0422F400797A0000F3
:0422F80031010008A8
:0422FC000D010008C8
:1023000000191B060C1B1300181806090809060003
:0C2310000024F400100000000100000098
:04000005080009E501
:00000001FF
