:020000040800F2
:1000000000500020D1090008750900087B0900088C
:1000100081090008870900088D0900080000000018
:10002000000000000000000000000000930900082C
:100030009F09000800000000AB090008B70900088C
:10004000190A0008190A0008190A0008190A000804
:10005000190A0008190A0008190A0008190A0008F4
:10006000190A0008190A0008190A0008190A0008E4
:10007000190A0008190A0008190A0008190A0008D4
:10008000190A0008190A0008190A0008190A0008C4
:10009000190A0008190A0008190A0008190A0008B4
:1000A000190A0008190A0008190A0008190A0008A4
:1000B000190A0008190A0008190A0008190A000894
:1000C000190A0008190A0008190A0008190A000884
:1000D000190A0008190A0008190A0008190A000874
:1000E000190A0008190A0008190A0008000000008F
:1000F0000000000000000000000000000000000000
:0C01000000000000000000005FF808F1A3
:10010C0010B5054C237833B9044B13B10448AFF345
:10011C0000800123237010BD1C0000200000000093
:10012C002827000808B5034B1BB103490348AFF35C
:10013C00008008BD000000002000002028270008D7
:10014C0080B582B000AF0346FB71384AFB7913705F
:10015C00374B08221A70374B00221A70334B1B781E
:10016C00012B07D9334B1B7843F00803DAB2314B20
:10017C001A7006E02F4B1B7843F00403DAB22D4BB8
:10018C001A7000F093F9322000F0A4FC284B1B7875
:10019C00184600F051F94FF47A7000F09BFC3020B7
:1001AC0000F039F941F2941000F0A8F9302000F079
:1001BC0032F941F2941000F0A1F9302000F02BF943
:1001CC0041F2941000F09AF9202000F024F96420F8
:1001DC0000F094F9174B1B7843F02003DBB2184660
:1001EC0000F0DCF8144B04221A7000F075F800F0E3
:1001FC002BF8124B02221A70104B1B7843F004039D
:10020C00DBB2184600F0CAF841F2941000F076F90F
:10021C000B49002000F084F80A49012000F080F816
:10022C0000F01DF800BF0837BD4680BD3B00002024
:10023C003C00002038000020390000203A0000204B
:10024C00000000200800002080B500AF012000F065
:10025C00A5F84FF4FA6000F051F900BF80BD80B5ED
:10026C0000AF022000F09AF84FF4FA6000F046F963
:10027C0000BF80BD90B587B000AF03460A46FB7146
:10028C001346BB71124B07F108040FCB84E80F0027
:10029C00104B1B78BA799A4203D30E4B1B78013B57
:1002AC00BB71BB799B0018333B4453F8103CDAB25A
:1002BC00FB791344DBB25BB263F07F035BB2DBB25E
:1002CC00184600F06BF800BF1C37BD4690BD00BF50
:1002DC00402700083B00002080B500AF084B1B787E
:1002EC0043F00403DAB2064B1A70054B1B7843F04B
:1002FC000803DBB2184600F051F800BF80BD00BF08
:10030C003900002080B500AF182000F047F800BF7E
:10031C0080BD80B500AF1C2000F040F800BF80BD50
:10032C0080B584B000AF03463960FB71FB7903F0F4
:10033C000703FB71FB79DB005BB243F040035BB25C
:10034C00DBB2184600F02AF80023FB6009E0FB68DA
:10035C003A6813441B78184600F02EF8FB680133FA
:10036C00FB60FB68072BF2DD00BF00BF1037BD46FA
:10037C0080BD80B582B000AF786006E07B685A1C07
:10038C007A601B78184600F017F87B681B78002BF6
:10039C00F4D100BF00BF0837BD4680BD80B582B028
:1003AC0000AF0346FB71FB790021184600F012F8F0
:1003BC0000BF0837BD4680BD80B582B000AF034694
:1003CC00FB71FB790121184600F004F800BF0837D7
:1003DC00BD4680BD80B584B000AF03460A46FB71B4
:1003EC001346BB71FB7923F00F03FB73FB791B01E5
:1003FC00BB73FA7BBB791343DBB2184600F00BF8E6
:10040C00BA7BBB791343DBB2184600F004F800BF8B
:10041C001037BD4680BD80B582B000AF0346FB717E
:10042C00FB79184600F008F8FB79184600F020F824
:10043C0000BF0837BD4680BD80B586B002AF03460D
:10044C00FB71094B1A78FB791343DBB2FB7307F191
:10045C000F020A23009301234E21044800F00AFFE7
:10046C0000BF1037BD4680BD3C000020400000207E
:10047C0080B582B000AF0346FB71FB7943F00403F7
:10048C00DBB21846FFF7D8FF142000F037F8FB79E1
:10049C0023F00403DBB21846FFF7CEFF142000F064
:1004AC002DF800BF0837BD4680BD000080B400AFFA
:1004BC00104BDB680F4A23F08073D3600D4BDB6865
:1004CC000C4A43F08073D3600B4B1B680A4A23F031
:1004DC0001031360084B1B68074A43F001031360C8
:1004EC00054B00225A6000BF00BF00BF00BFBD46D5
:1004FC0080BC7047F0ED00E0001000E080B487B0E5
:10050C0000AF78600D4B1B680D4AA2FB03239A0CBD
:10051C007B6802FB03F37B610A4B5B683B61094B15
:10052C005A683B69D31AFB60FB687A699A42F6D821
:10053C0000BF00BF1C37BD4680BC704710000020B8
:10054C0083DE1B43001000E080B586B000AF00F0E6
:10055C005FFA00F085F800F045F900F0C7F800F0FC
:10056C00F3F80220FFF7ECFDFFF76EFE00210020F0
:10057C00FFF780FE3548FFF7FCFE01210020FFF756
:10058C0079FE3348FFF7F5FE4FF4FA6000F0A2FA5B
:10059C00FFF75AFE00211020FFF76CFE2D48FFF7E5
:1005AC00E8FE00237B6108E0FFF7ACFE4FF4FA7025
:1005BC0000F090FA7B6901337B617B69132BF3DDCF
:1005CC00FFF742FE00210020FFF754FE2248FFF700
:1005DC00D0FE00233B6108E0FFF79BFE4FF4FA705E
:1005EC0000F078FA3B6901333B613B69132BF3DD77
:1005FC00FFF72AFE00210020FFF73CFE1748FFF70B
:10060C00B8FE4FF4FA6000F065FA0023FB6016E0C8
:10061C003B1D0A221946F86802F010F8FFF714FE89
:10062C0000210020FFF726FE3B1D1846FFF7A1FE18
:10063C004FF47A7000F04EFAFB680133FB60FB68F4
:10064C000A2BE5DDFFF700FEFEE700BF5027000890
:10065C0060270008702700087C2700088C270008FA
:10066C0080B590B000AF07F118032822002118467E
:10067C0002F028F83B1D00221A605A609A60DA607A
:10068C001A610123BB614FF48033FB6100233B6291
:10069C000123BB6202237B634FF48033BB634FF4B3
:1006AC00E013FB6307F11803184601F03BF903460E
:1006BC00002B01D000F0C4F80F237B600223BB6039
:1006CC000023FB604FF480633B6100237B613B1D87
:1006DC000221184601F0A8FB0346002B01D000F0C4
:1006EC00AFF800BF4037BD4680BD000080B500AFFD
:1006FC00124B134A1A60114B124A5A600F4B0022CC
:10070C009A600E4B0022DA600C4B4FF480421A6157
:10071C000A4B00225A61094B00229A61074B0022B6
:10072C00DA61064B00221A62044800F05FFC0346B3
:10073C00002B01D000F084F800BF80BD40000020E9
:10074C0000540040A086010080B586B000AF07F1D0
:10075C00080300221A605A609A60DA603B46002255
:10076C001A605A601D4B1E4A1A601C4B00225A60BC
:10077C001A4B00229A60194B4FF6FF72DA60174B36
:10078C0000221A61154B00229A61144801F0C6FC34
:10079C000346002B01D000F053F84FF48053BB609C
:1007AC0007F1080319460D4801F007FD0346002B1D
:1007BC0001D000F045F800233B6000237B603B46F2
:1007CC001946064801F0C4FE0346002B01D000F088
:1007DC0037F800BF1837BD4680BD00BF940000201D
:1007EC000008004080B485B000AF144B9B69134ADD
:1007FC0043F020039361114B9B6903F02003FB60D2
:10080C00FB680E4B9B690D4A43F0040393610B4B41
:10081C009B6903F00403BB60BB68084B9B69074AE8
:10082C0043F008039361054B9B6903F008037B605D
:10083C007B6800BF1437BD4680BC70470010024077
:10084C0080B400AF72B600BFFEE7000080B485B084
:10085C0000AF154B9B69144A43F001039361124B93
:10086C009B6903F00103BB60BB680F4BDB690E4A4D
:10087C0043F08053D3610C4BDB6903F080537B60F6
:10088C007B680A4B5B68FB60FB6823F0E063FB60F2
:10089C00FB6843F00073FB60044AFB68536000BFC5
:1008AC001437BD4680BC7047001002400000014068
:1008BC0080B588B000AF786007F1100300221A6091
:1008CC005A609A60DA607B681B68154A934223D1A0
:1008DC00144B9B69134A43F008039361114B9B69BA
:1008EC0003F00803FB60FB68C0233B6112237B61B0
:1008FC000323FB6107F1100319460B4800F0F2F9D2
:10090C00084BDB69074A43F40013D361054BDB69E1
:10091C0003F40013BB60BB6800BF2037BD4680BD2D
:10092C000054004000100240000C014080B485B01F
:10093C0000AF78607B681B68094A93420BD1094B66
:10094C00DB69084A43F00403D361064BDB6903F00F
:10095C000403FB60FB6800BF1437BD4680BC7047C6
:10096C00000800400010024080B400AFFEE780B4E5
:10097C0000AFFEE780B400AFFEE780B400AFFEE747
:10098C0080B400AFFEE780B400AF00BFBD4680BCB2
:10099C00704780B400AF00BFBD4680BC704780B4C8
:1009AC0000AF00BFBD4680BC704780B500AF00F003
:1009BC0075F800BF80BD80B400AF00BFBD4680BCE1
:1009CC0070470000FFF7F7FF0B480C490C4A002357
:1009DC0002E0D458C4500433C4188C42F9D3094AE9
:1009EC00094C002301E013600432A242FBD301F056
:1009FC0071FEFFF7A9FD7047000000201C000020CD
:100A0C00F82700081C000020E0000020FEE7000092
:100A1C0080B500AF084B1B68074A43F01003136006
:100A2C00032000F02BF90F2000F008F8FFF70EFF61
:100A3C000023184680BD00BF0020024080B582B064
:100A4C0000AF7860124B1A68124B1B7819464FF4A2
:100A5C007A73B3FBF1F3B2FBF3F3184600F035F9FC
:100A6C000346002B01D001230EE07B680F2B0AD824
:100A7C00002279684FF0FF3000F00BF9064A7B68D2
:100A8C001360002300E0012318460837BD4680BDE3
:100A9C0010000020180000201400002080B400AFCB
:100AAC00054B1B781A46054B1B681344034A13600D
:100ABC0000BFBD4680BC704718000020DC00002041
:100ACC0080B400AF024B1B681846BD4680BC704713
:100ADC00DC00002080B584B000AF7860FFF7F0FF39
:100AEC00B8607B68FB60FB68B3F1FF3F05D00A4B35
:100AFC001B781A46FB681344FB6000BFFFF7E0FF4E
:100B0C000246BB68D31AFA689A42F7D800BF00BFF6
:100B1C001037BD4680BD00BF1800002080B485B0E2
:100B2C0000AF78607B6803F00703FB600C4BDB685D
:100B3C00BB60BA684FF6FF031340BB60FB681A0238
:100B4C00BB68134343F0BF6343F40033BB60044AF8
:100B5C00BB68D36000BF1437BD4680BC704700BF74
:100B6C0000ED00E080B400AF044BDB681B0A03F01F
:100B7C0007031846BD4680BC704700BF00ED00E07F
:100B8C0080B483B000AF03463960FB7197F907302E
:100B9C00002B0ADB3B68DAB20C4997F907301201DB
:100BAC00D2B20B4483F800230AE03B68DAB208495E
:100BBC00FB7903F00F03043B1201D2B20B441A76FB
:100BCC0000BF0C37BD4680BC704700BF00E100E0A1
:100BDC0000ED00E080B489B000AFF860B9607A60D5
:100BEC00FB6803F00703FB61FB69C3F10703042BEC
:100BFC0028BF0423BB61FB690433062B02D9FB69B4
:100C0C00033B00E000237B614FF0FF32BB6902FA2B
:100C1C0003F3DA43BB681A407B699A404FF0FF310B
:100C2C007B6901FA03F3D9437B680B4013431846E5
:100C3C002437BD4680BC704780B582B000AF786069
:100C4C007B68013BB3F1807F01D301230FE00A4A9B
:100C5C007B68013B53600F214FF0FF30FFF790FF93
:100C6C00054B00229A60044B07221A600023184699
:100C7C000837BD4680BD00BF10E000E080B582B0F3
:100C8C0000AF78607868FFF749FF00BF0837BD46B2
:100C9C0080BD80B586B000AF0346B9607A60FB7347
:100CAC0000237B61FFF75EFF78617A68B968786929
:100CBC00FFF790FF024697F90F3011461846FFF7E1
:100CCC005FFF00BF1837BD4680BD80B582B000AF56
:100CDC0078607868FFF7B0FF034618460837BD46C2
:100CEC0080BD000080B48BB000AF78603960002309
:100CFC007B6200233B6269E101227B6A02FA03F307
:100D0C00FB613B681B68FA691340BB61BA69FB69FC
:100D1C009A4240F058813B685B689A4A93425ED095
:100D2C00984A934275D8984A934258D0964A93421F
:100D3C006FD8964A934252D0944A934269D8944AB7
:100D4C0093424CD0924A934263D8924A934246D0F3
:100D5C00904A93425DD8122B2AD8122B59D801A253
:100D6C0052F823F0EB0D0008C50D0008D70D000854
:100D7C00190E00081F0E00081F0E00081F0E000899
:100D8C001F0E00081F0E00081F0E00081F0E000883
:100D9C001F0E00081F0E00081F0E00081F0E000873
:100DAC001F0E00081F0E0008CD0D0008E10D0008F5
:100DBC00794A934213D02CE03B68DB683B6229E014
:100DCC003B68DB6804333B6224E03B68DB68083338
:100DDC003B621FE03B68DB680C333B621AE03B680C
:100DEC009B68002B02D104233B6213E03B689B6899
:100DFC00012B05D108233B627B68FA691A6109E073
:100E0C0008233B627B68FA695A6103E000233B626A
:100E1C0000E000BFBB69FF2B01D87B6801E07B6859
:100E2C0004337B61BB69FF2B02D87B6A9B0002E019
:100E3C007B6A083B9B003B617B691A680F213B690D
:100E4C0001FA03F3DB431A40396A3B6901FA03F3F5
:100E5C001A437B691A603B685B6803F08053002B74
:100E6C0000F0B1804D4B9B694C4A43F001039361F8
:100E7C004A4B9B6903F00103BB60BB68484A7B6A21
:100E8C009B08023352F82330FB607B6A03F00303A8
:100E9C009B000F2202FA03F3DB43FA681340FB605A
:100EAC007B68404A934213D07B683F4A93420DD0F3
:100EBC007B683E4A934207D07B683D4A934201D1FE
:100ECC00032306E0042304E0022302E0012300E0F4
:100EDC0000237A6A02F0030292009340FA681343EB
:100EEC00FB602F497B6A9B080233FA6841F8232088
:100EFC003B685B6803F48013002B06D02D4B9A687B
:100F0C002C49BB6913438B6006E02A4B9A68BB697A
:100F1C00DB43284913408B603B685B6803F4001388
:100F2C00002B06D0234BDA682249BB691343CB60F4
:100F3C0006E0204BDA68BB69DB431E491340CB60EB
:100F4C003B685B6803F40033002B06D0194B5A68DE
:100F5C001849BB6913434B6006E0164B5A68BB69D2
:100F6C00DB43144913404B603B685B6803F48033EC
:100F7C00002B21D00F4B1A680E49BB6913430B6031
:100F8C0021E000BF000032100000311000002210E0
:100F9C00000021100000121000001110001002407F
:100FAC000000014000080140000C0140001001400D
:100FBC0000140140000401400B4B1A68BB69DB4371
:100FCC00094913400B607B6A01337B623B681A68EA
:100FDC007B6A22FA03F3002B7FF48EAE00BF00BFB6
:100FEC002C37BD4680BC70470004014080B584B0EE
:100FFC0000AF78607B68002B01D101232BE17B686B
:10100C0093F83D30DBB2002B06D17B68002283F8CD
:10101C003C207868FFF74CFC7B68242283F83D2049
:10102C007B681B681A687B681B6822F001021A60D7
:10103C007B681B681A687B681B6842F400421A6064
:10104C007B681B681A687B681B6822F400421A6074
:10105C0001F032F8F8607B685B68814A934207D8EC
:10106C00FB68804A934294BF01230023DBB206E065
:10107C00FB687D4A934294BF01230023DBB2002B13
:10108C0001D00123E7E0FB68784AA2FB03239B0C09
:10109C00BB607B681B685B6823F03F017B681B6847
:1010AC00BA680A435A607B681B681B6A23F03F01CD
:1010BC007B685B686A4A934202D8BB68013309E0DB
:1010CC00BB684FF4967202FB03F3694AA2FB03233D
:1010DC009B0901337A6812680B4313627B681B68A7
:1010EC00DB6923F44F4222F0FF027B685B685C49AA
:1010FC008B4219D8FB68591E7B685B685B00B1FB9F
:10110C00F3F3591C40F6FC730B40002B0AD0FB6820
:10111C00591E7B685B685B00B1FBF3F30133C3F3CF
:10112C000B0351E004234FE07B689B68002B11D12B
:10113C00FB68581E7B6859680B465B000B44B0FB80
:10114C00F3F30133C3F30B03002B0CBF0123002378
:10115C00DBB212E0FB68581E7B6859680B469B009B
:10116C000B4499000B44B0FBF3F30133C3F30B03B3
:10117C00002B0CBF01230023DBB2002B01D0012379
:10118C0022E07B689B68002B0ED1FB68581E7B68A5
:10119C0059680B465B000B44B0FBF3F30133C3F30C
:1011AC000B0343F400430FE0FB68581E7B6859683F
:1011BC000B469B000B4499000B44B0FBF3F301333B
:1011CC00C3F30B0343F44043796809681343CB61C1
:1011DC007B681B681B6823F0C0017B68DA697B683D
:1011EC001B6A1A437B681B680A431A607B681B687E
:1011FC009B6823F4034323F0FF037A6811697A6830
:10120C00D26811437A6812680B4393607B681B6841
:10121C00DB6823F0FF017B685A697B689B691A4382
:10122C007B681B680A43DA607B681B681A687B68FA
:10123C001B6842F001021A607B6800221A647B680A
:10124C00202283F83D207B6800221A637B680022F1
:10125C0083F83E20002318461037BD4680BD00BFE2
:10126C00A08601007F841E00FF083D0083DE1B4327
:10127C00D34D621080B588B002AFF8607A601A4620
:10128C000B467B8113463B81FFF71AFC7861FB68A8
:10129C0093F83D30DBB2202B40F0E0807B6900936B
:1012AC00192301227049F86800F064F90346002BF9
:1012BC0001D00223D3E0FB6893F83C30012B01D121
:1012CC000223CCE0FB68012283F83C20FB681B68FE
:1012DC001B6803F00103012B07D0FB681B681A681D
:1012EC00FB681B6842F001021A60FB681B681A68F5
:1012FC00FB681B6822F400621A60FB68212283F8E9
:10130C003D20FB68102283F83E20FB6800221A6403
:10131C00FB687A685A62FB683A895A85FB685B8D70
:10132C009AB2FB681A85FB68504ADA6279897B6944
:10133C003A6AF86800F09CF80346002B01D00123B0
:10134C008DE000233B61FB681B685B693B61FB68BC
:10135C001B689B693B613B6966E07A69396AF8688E
:10136C0000F022FA0346002B0DD0FB681B6C042BFB
:10137C0007D1FB681B681A68FB681B6842F4007293
:10138C001A6001236BE0FB685B6A1A78FB681B68C8
:10139C001A61FB685B6A5A1CFB685A62FB685B8DBE
:1013AC009BB2013B9AB2FB685A85FB681B8D013BD3
:1013BC009AB2FB681A85FB681B685B6903F004032F
:1013CC00042B1BD1FB681B8D002B17D0FB685B6AB1
:1013DC001A78FB681B681A61FB685B6A5A1CFB680D
:1013EC005A62FB685B8D9BB2013B9AB2FB685A85D3
:1013FC00FB681B8D013B9AB2FB681A857A69396AC6
:10140C00F86800F019FA0346002B0DD0FB681B6C32
:10141C00042B07D1FB681B681A68FB681B6842F435
:10142C0000721A6001231AE0FB681B8D002B94D10B
:10143C00FB681B681A68FB681B6842F400721A6030
:10144C00FB68202283F83D20FB68002283F83E20B5
:10145C00FB68002283F83C20002300E0022318469E
:10146C001837BD4680BD00BF020010000000FFFF12
:10147C0080B588B002AFF8607A603B600B467B8128
:10148C00FB68DB6A7B617B69082B06D07B69012BCF
:10149C0003D07B6913F5803F08D1FB681B681A6881
:1014AC00FB681B6842F480721A600BE0FB681B6BD4
:1014BC00122B07D1FB681B681A68FB681B6842F487
:1014CC0080721A603B6800937B6800224FF0011118
:1014DC00F86800F04FF80346002B0DD0FB681B6832
:1014EC001B6803F48073B3F5807F03D1FB684FF462
:1014FC0000721A64032335E0FB681B69B3F5804F57
:10150C0008D17B89DBB21A46FB681B6802F0FE022D
:10151C001A611BE07B89DB11DBB203F00603DBB243
:10152C0063F00F03DAB2FB681B681A613B687A68D8
:10153C000E49F86800F098F80346002B01D00123FF
:10154C0010E07B89DAB2FB681B681A613B687A6829
:10155C000749F86800F088F80346002B01D00123F6
:10156C0000E0002318461837BD4680BD0800010076
:10157C000200010080B584B000AFF860B9603B6038
:10158C001346FB7148E03B68B3F1FF3F44D0FFF7D3
:10159C0097FA0246BB69D31A3A689A4202D33B685F
:1015AC00002B39D1BB681B0CDBB2012B0DD1FB68B6
:1015BC001B685B69DA43BB6813409BB2002B0CBF02
:1015CC0001230023DBB21A460CE0FB681B689B6905
:1015DC00DA43BB6813409BB2002B0CBF01230023E2
:1015EC00DBB21A46FB799A4216D1FB6800221A63C9
:1015FC00FB68202283F83D20FB68002283F83E2004
:10160C00FB681B6C43F02002FB681A64FB68002229
:10161C0083F83C20012323E0BB681B0CDBB2012BBD
:10162C000DD1FB681B685B69DA43BB6813409BB246
:10163C00002B0CBF01230023DBB21A460CE0FB6825
:10164C001B689B69DA43BB6813409BB2002B0CBF31
:10165C0001230023DBB21A46FB799A4293D0002374
:10166C0018461037BD4680BD80B584B000AFF86019
:10167C00B9607A603B6071E0FB681B685B6903F4DE
:10168C008063B3F5806F23D1FB681B681A68FB6815
:10169C001B6842F400721A60FB681B686FF480626E
:1016AC005A61FB6800221A63FB68202283F83D20F4
:1016BC00FB68002283F83E20FB681B6C43F004029D
:1016CC00FB681A64FB68002283F83C20012367E066
:1016DC007B68B3F1FF3F41D0FFF7F2F902463B685C
:1016EC00D31A7A689A4202D37B68002B36D1BB6836
:1016FC001B0CDBB2012B0CD1FB681B685B69DA435A
:10170C00BB6813409BB2002B14BF01230023DBB238
:10171C000BE0FB681B689B69DA43BB6813409BB208
:10172C00002B14BF01230023DBB2002B16D0FB6867
:10173C0000221A63FB68202283F83D20FB680022FC
:10174C0083F83E20FB681B6C43F02002FB681A6494
:10175C00FB68002283F83C20012321E0BB681B0CB2
:10176C00DBB2012B0CD1FB681B685B69DA43BB68ED
:10177C0013409BB2002B14BF01230023DBB20BE000
:10178C00FB681B689B69DA43BB6813409BB2002B58
:10179C0014BF01230023DBB2002B7FF46DAF0023B9
:1017AC0018461037BD4680BD80B584B000AFF860D8
:1017BC00B9607A6034E0F86800F086F80346002BD4
:1017CC0001D0012334E0BB68B3F1FF3F28D0FFF711
:1017DC0077F902467B68D31ABA689A4202D3BB687F
:1017EC00002B1DD1FB681B685B6903F08003802B09
:1017FC0016D0FB6800221A63FB68202283F83D2078
:10180C00FB68002283F83E20FB681B6C43F020022F
:10181C00FB681A64FB68002283F83C20012307E074
:10182C00FB681B685B6903F08003802BC3D100232A
:10183C0018461037BD4680BD80B584B000AFF86047
:10184C00B9607A6034E0F86800F03EF80346002B8B
:10185C0001D0012334E0BB68B3F1FF3F28D0FFF780
:10186C002FF902467B68D31ABA689A4202D3BB6836
:10187C00002B1DD1FB681B685B6903F00403042B70
:10188C0016D0FB6800221A63FB68202283F83D20E7
:10189C00FB68002283F83E20FB681B6C43F020029F
:1018AC00FB681A64FB68002283F83C20012307E0E4
:1018BC00FB681B685B6903F00403042BC3D1002392
:1018CC0018461037BD4680BD80B483B000AF786039
:1018DC007B681B685B6903F48063B3F5806F1BD175
:1018EC007B681B686FF480625A617B6800221A6304
:1018FC007B68202283F83D207B68002283F83E2001
:10190C007B681B6C43F004027B681A647B680022C2
:10191C0083F83C20012300E0002318460C37BD4619
:10192C0080BC704780B586B000AF78607B68002BB8
:10193C0001D1012372E27B681B6803F00103002BC9
:10194C0000F08780924B5B6803F00C03042B0CD0E7
:10195C008F4B5B6803F00C03082B12D18C4B5B682C
:10196C0003F48033B3F5803F0BD1894B1B6803F430
:10197C000033002B6CD07B685B68002B68D1012393
:10198C004CE27B685B68B3F5803F06D1804B1B68EB
:10199C007F4A43F4803313602EE07B685B68002B36
:1019AC000CD17B4B1B687A4A23F480331360784B41
:1019BC001B68774A23F4802313601DE07B685B6807
:1019CC00B3F5A02F0CD1724B1B68714A43F48023E2
:1019DC0013606F4B1B686E4A43F4803313600BE04B
:1019EC006B4B1B686A4A23F480331360684B1B688B
:1019FC00674A23F4802313607B685B68002B13D049
:101A0C00FFF75EF8386108E0FFF75AF802463B69C9
:101A1C00D31A642B01D9032300E25D4B1B6803F43A
:101A2C000033002BF0D014E0FFF74AF8386108E0DF
:101A3C00FFF746F802463B69D31A642B01D90323FE
:101A4C00ECE1534B1B6803F40033002BF0D100E0A6
:101A5C0000BF7B681B6803F00203002B63D04C4B68
:101A6C005B6803F00C03002B0BD0494B5B6803F055
:101A7C000C03082B1CD1464B5B6803F48033002B02
:101A8C0016D1434B1B6803F00203002B05D07B6877
:101A9C001B69012B01D00123C0E13D4B1B6823F0D6
:101AAC00F8027B685B69DB00394913430B603AE051
:101ABC007B681B69002B20D0364B01221A60FEF785
:101ACC00FFFF386108E0FEF7FBFF02463B69D31AC3
:101ADC00022B01D90323A1E12D4B1B6803F0020358
:101AEC00002BF0D02A4B1B6823F0F8027B685B6953
:101AFC00DB00274913430B6015E0264B00221A60CC
:101B0C00FEF7DEFF386108E0FEF7DAFF02463B69BC
:101B1C00D31A022B01D9032380E11D4B1B6803F060
:101B2C000203002BF0D17B681B6803F00803002B29
:101B3C003AD07B689B69002B19D0174B01221A6095
:101B4C00FEF7BEFF386108E0FEF7BAFF02463B69BC
:101B5C00D31A022B01D9032360E10D4B5B6A03F00E
:101B6C000203002BF0D0012000F0BAFA1CE00A4B63
:101B7C0000221A60FEF7A4FF38610FE0FEF7A0FF09
:101B8C0002463B69D31A022B08D9032346E100BF56
:101B9C00001002400000424280044242924B5B6AB9
:101BAC0003F00203002BE9D17B681B6803F00403EC
:101BBC00002B00F0A6800023FB758B4BDB6903F038
:101BCC008053002B0DD1884BDB69874A43F080533F
:101BDC00D361854BDB6903F08053BB60BB68012389
:101BEC00FB75824B1B6803F48073002B18D17F4B61
:101BFC001B687E4A43F480731360FEF761FF386103
:101C0C0008E0FEF75DFF02463B69D31A642B01D94D
:101C1C00032303E1754B1B6803F48073002BF0D096
:101C2C007B68DB68012B06D16F4B1B6A6E4A43F055
:101C3C00010313622DE07B68DB68002B0CD16A4B2F
:101C4C001B6A694A23F001031362674B1B6A664ADD
:101C5C0023F0040313621CE07B68DB68052B0CD1BA
:101C6C00614B1B6A604A43F0040313625E4B1B6AB0
:101C7C005D4A43F0010313620BE05B4B1B6A5A4A4B
:101C8C0023F001031362584B1B6A574A23F00403D9
:101C9C0013627B68DB68002B15D0FEF711FF3861EF
:101CAC000AE0FEF70DFF02463B69D31A41F2883277
:101CBC00934201D90323B1E04B4B1B6A03F002039F
:101CCC00002BEED014E0FEF7FBFE38610AE0FEF7C5
:101CDC00F7FE02463B69D31A41F28832934201D98E
:101CEC0003239BE0404B1B6A03F00203002BEED155
:101CFC00FB7D012B05D13C4BDB693B4A23F0805328
:101D0C00D3617B68DB69002B00F08780364B5B6806
:101D1C0003F00C03082B61D07B68DB69022B46D1E6
:101D2C00334B00221A60FEF7CBFE386108E0FEF759
:101D3C00C7FE02463B69D31A022B01D903236DE07F
:101D4C00294B1B6803F00073002BF0D17B681B6AD6
:101D5C00B3F5803F08D1244B5B6823F400327B68D9
:101D6C009B68214913434B601F4B5B6823F474122F
:101D7C007B68196A7B685B6A0B431B4913434B6096
:101D8C001B4B01221A60FEF79BFE386108E0FEF740
:101D9C0097FE02463B69D31A022B01D903233DE07F
:101DAC00114B1B6803F00073002BF0D035E0104B87
:101DBC0000221A60FEF784FE386108E0FEF780FE10
:101DCC0002463B69D31A022B01D9032326E0064BAA
:101DDC001B6803F00073002BF0D11EE07B68DB69FD
:101DEC00012B07D1012319E00010024000700040C4
:101DFC00600042420B4B5B68FB60FB6803F4803273
:101E0C007B681B6A9A4206D1FB6803F470127B68EC
:101E1C005B6A9A4201D0012300E000231846183770
:101E2C00BD4680BD0010024080B584B000AF786024
:101E3C0039607B68002B01D10123D0E06A4B1B6811
:101E4C0003F007033A689A4210D9674B1B6823F0DA
:101E5C00070265493B6813430B60634B1B6803F037
:101E6C0007033A689A4201D00123B8E07B681B68EB
:101E7C0003F00203002B20D07B681B6803F00403E3
:101E8C00002B05D0594B5B68584A43F4E063536010
:101E9C007B681B6803F00803002B05D0534B5B6871
:101EAC00524A43F460535360504B5B6823F0F0028A
:101EBC007B689B684D4913434B607B681B6803F040
:101ECC000103002B40D07B685B68012B07D1474B8B
:101EDC001B6803F40033002B15D101237FE07B68D2
:101EEC005B68022B07D1414B1B6803F00073002B7E
:101EFC0009D1012373E03D4B1B6803F00203002B57
:101F0C0001D101236BE0394B5B6823F003027B6842
:101F1C005B68364913434B60FEF7D2FDF8600AE06C
:101F2C00FEF7CEFD0246FB68D31A41F2883293428B
:101F3C0001D9032353E02D4B5B6803F00C027B6843
:101F4C005B689B009A42EBD1274B1B6803F007039D
:101F5C003A689A4210D2244B1B6823F0070222499C
:101F6C003B6813430B60204B1B6803F007033A6874
:101F7C009A4201D0012332E07B681B6803F0040312
:101F8C00002B08D0194B5B6823F4E0627B68DB689C
:101F9C00164913434B607B681B6803F00803002B46
:101FAC0009D0124B5B6823F460527B681B69DB0021
:101FBC000E4913434B6000F021F802460B4B5B6853
:101FCC001B0903F00F030A49CB5C22FA03F3094AFD
:101FDC001360094B1B681846FEF730FD00231846AA
:101FEC001037BD4680BD00BF0020024000100240EB
:101FFC00A0270008100000201400002080B487B037
:10200C0000AF0023FB600023BB6000237B61002337
:10201C007B6000233B611E4B5B68FB60FB6803F03D
:10202C000C03042B02D0082B03D027E0194B3B6187
:10203C0027E0FB689B0C03F00F03174AD35C7B6013
:10204C00FB6803F48033002B10D0114B5B685B0CE6
:10205C0003F00103114AD35CBB607B680D4A03FBA0
:10206C0002F2BB68B2FBF3F37B6104E07B680C4AC1
:10207C0002FB03F37B617B693B6102E0054B3B6137
:10208C0000BF3B6918461C37BD4680BC704700BF7B
:10209C000010024000127A00B8270008C827000878
:1020AC0000093D0080B400AF024B1B681846BD46CA
:1020BC0080BC70471000002080B500AFFFF7F2FF26
:1020CC000246054B5B681B0A03F007030349CB5C14
:1020DC0022FA03F3184680BD00100240B027000816
:1020EC0080B485B000AF78600A4B1B680A4AA2FB2B
:1020FC0003235B0A7A6802FB03F3FB6000BFFB68F7
:10210C005A1EFA60002BF9D100BF00BF1437BD4630
:10211C0080BC704710000020D34D621080B582B097
:10212C0000AF78607B68002B01D1012341E07B6814
:10213C0093F83D30DBB2002B06D17B68002283F88C
:10214C003C207868FEF7F2FB7B68022283F83D2086
:10215C007B681A687B6804331946104600F0F4F863
:10216C007B68012283F846207B68012283F83E209D
:10217C007B68012283F83F207B68012283F8402092
:10218C007B68012283F841207B68012283F842207E
:10219C007B68012283F843207B68012283F844206A
:1021AC007B68012283F845207B68012283F83D205F
:1021BC00002318460837BD4680BD80B584B000AFFB
:1021CC00786039600023FB737B6893F83C30012BFB
:1021DC0001D10223B4E07B68012283F83C207B68A8
:1021EC00022283F83D207B681B689B68BB60BB6840
:1021FC0023F07703BB60BB6823F47F43BB607B6831
:10220C001B68BA689A603B681B68B3F5005F3ED0E8
:10221C00B3F5005F00F28780B3F5805F00F0868035
:10222C00B3F5805F7FD8702B1AD0702B7BD8602BC6
:10223C0050D0602B77D8502B3CD0502B73D8402BE0
:10224C0058D0402B6FD8302B64D0302B6BD8202B30
:10225C0060D0202B67D8002B5CD0102B5AD062E0BA
:10226C007B6818683B6899683B685A683B68DB6810
:10227C0000F04FF97B681B689B68BB60BB6843F040
:10228C007703BB607B681B68BA689A604FE07B6819
:10229C0018683B6899683B685A683B68DB6800F0D3
:1022AC0038F97B681B689A687B681B6842F480422B
:1022BC009A603CE07B6818683B6859683B68DB684F
:1022CC001A4600F0AFF87B681B685021184600F0E6
:1022DC0006F92CE07B6818683B6859683B68DB683A
:1022EC001A4600F0CDF87B681B686021184600F098
:1022FC00F6F81CE07B6818683B6859683B68DB683B
:10230C001A4600F08FF87B681B684021184600F0D5
:10231C00E6F80CE07B681A683B681B6819461046A7
:10232C0000F0DDF803E00123FB7300E000BF7B68E5
:10233C00012283F83D207B68002283F83C20FB7B44
:10234C0018461037BD4680BD80B485B000AF7860AC
:10235C0039607B681B68FB607B682F4A93420BD00B
:10236C007B68B3F1804F07D07B682C4A934203D033
:10237C007B682B4A934208D1FB6823F07003FB6007
:10238C003B685B68FA681343FB607B68224A9342A4
:10239C000BD07B68B3F1804F07D07B681F4A934208
:1023AC0003D07B681E4A934208D1FB6823F4407328
:1023BC00FB603B68DB68FA681343FB60FB6823F047
:1023CC0080023B685B691343FB607B68FA681A60A8
:1023DC003B689A687B68DA623B681A687B689A6229
:1023EC007B680D4A934203D13B681A697B681A6378
:1023FC007B6801225A617B681B6903F00103002B87
:10240C0005D07B681B6923F001027B681A6100BF51
:10241C001437BD4680BC7047002C014000040040BE
:10242C000008004080B487B000AFF860B9607A60F3
:10243C00FB681B6A7B61FB681B6A23F00102FB686B
:10244C001A62FB689B693B613B6923F0F0033B61BB
:10245C007B681B013A6913433B617B6923F00A03D8
:10246C007B617A69BB6813437B61FB683A699A614B
:10247C00FB687A691A6200BF1C37BD4680BC704786
:10248C0080B487B000AFF860B9607A60FB681B6AF3
:10249C007B61FB681B6A23F01002FB681A62FB6805
:1024AC009B693B613B6923F470433B617B681B0375
:1024BC003A6913433B617B6923F0A0037B61BB68E2
:1024CC001B017A6913437B61FB683A699A61FB686B
:1024DC007A691A6200BF1C37BD4680BC704780B455
:1024EC0085B000AF786039607B689B68FB60FB68E7
:1024FC0023F07003FB603A68FB68134343F0070357
:10250C00FB607B68FA689A6000BF1437BD4680BCDC
:10251C00704780B487B000AFF860B9607A603B60F8
:10252C00FB689B687B617B6923F47F437B613B6821
:10253C001A027B681A43BB6813437A6913437B61A5
:10254C00FB687A699A6000BF1C37BD4680BC704737
:10255C0080B485B000AF786039607B6893F83C300C
:10256C00012B01D1022346E07B68012283F83C2039
:10257C007B68022283F83D207B681B685B68FB60EC
:10258C007B681B689B68BB60FB6823F07003FB6077
:10259C003B681B68FA681343FB607B681B68FA682E
:1025AC005A607B681B68164A93420ED07B681B6886
:1025BC00B3F1804F09D07B681B68124A934204D058
:1025CC007B681B68104A93420CD1BB6823F08003D4
:1025DC00BB603B685B68BA681343BB607B681B6875
:1025EC00BA689A607B68012283F83D207B680022E0
:1025FC0083F83C20002318461437BD4680BC704736
:10260C00002C01400004004000080040931E222BC7
:10261C0010B50C4604D900231C460B70204610BD87
:10262C000A2A09D1002807DA2D230B700121404218
:10263C00214400F005F8F1E70021F9E7FFF7E6BFC8
:10264C00F0B58BB005460B466E461D4C04F1200CC4
:10265C00374620686168083403C764453E46F7D1A5
:10266C00217920683971911E222938604FF00001C0
:10267C0004D919700B4618460BB0F0BD581E844691
:10268C00B5FBF2F702FB175628366E4416F8286C89
:10269C000C460CF8016F2E46B2423D4601F1010189
:1026AC00EED900225A541919A51AAA42E3DA10F8E5
:1026BC00015F0E780132067001F80159F4E700BF92
:1026CC00CA27000803460244934200D1704703F81E
:1026DC00011BF9E770B500260C4D0D4C641BA410C2
:1026EC00A64209D100F01AF800260A4D0A4C641BC8
:1026FC00A410A64205D170BD55F8043B984701368D
:10270C00EEE755F8043B98470136F2E7F02700084E
:10271C00F0270008F0270008F4270008F8B500BFE0
:10272C00F8BC08BC9E467047F8B500BFF8BC08BCA6
:04273C009E467047FE
:1027400000000000400000001400000054000000E1
:1027500053544D333220424C55452050494C4C0087
:10276000493243204C43442044454D4F0000000073
:102770005343524F4C4C204C454654005343524F08
:102780004C4C205249474854000000004C6574737B
:1027900020436F756E7420302D3130210000000011
:1027A0000000000000000000010203040607080901
:1027B00000000000010203040203040506070809E3
:1027C0000A0B0C0D0E0F101001023031323334356C
:1027D000363738396162636465666768696A6B6C4D
:1027E0006D6E6F707172737475767778797A000098
:0427F00031010008AB
:0427F4000D010008CB
:1027F80000191B060C1B1300181806090809060007
:0C28080000127A00100000000100000027
:04000005080009D115
:00000001FF
